:100000000C9434000C9451000C9451000C94510049
:100010000C948F000C9451000C9451000C945100DE
:100020000C9451000C94A3000C9451000C945100BA
:100030000C9451000C9451000C9451000C945100FC
:100040000C9451000C9451000C9451000C945100EC
:100050000C9451000C9451000C9451000C945100DC
:100060000C9451000C94510011241FBECFEFD8E026
:10007000DEBFCDBF11E0A0E0B1E0EEEBF1E002C0E9
:1000800005900D92A030B107D9F711E0A0E0B1E0E2
:1000900001C01D92A330B107E1F70E94CC000C947F
:1000A000DD000C940000E0E7F0E080818083E6EB67
:1000B000F0E08081806280831092B2001092B300E1
:1000C0001092B400E0EBF0E080818083E1EBF0E09F
:1000D000808185608083E6EBF0E080818B71E9F7B9
:1000E00087B3876087BBE0E7F0E080818160808331
:1000F00008958BEA809364003D9AECE6F0E08081FD
:1001000080618083E8E6F0E080818260808383B74D
:10011000816083BF83B7866083BF789408951F9200
:100120000F920FB60F9211248F93F89481E0809371
:1001300002018DB383608DBB78948F910F900FBEB9
:100140000F901F9018951F920F920FB60F921124C7
:100150008F939F93F89480910001909101010196F3
:10016000909301018093000178949F918F910F905B
:100170000FBE0F901F901895F894459A8FE39DE05D
:10018000A3E081509040A040E1F700C000004598F6
:1001900078940895889508950E94790004C010927B
:1001A00002010E94BC00809102018823C1F73499AA
:0E01B000F6CF78940E94CA00F6CFF894FFCFE5
:00000001FF
